:020000040800F2
:10280000004000204DA7010865390008673900081D
:1028100000000000000000000000000000000000B8
:1028200000000000000000000000000069390008FE
:1028300000000000000000006B39000869C70008B4
:102840009DA701089DA701089DA701089DA7010854
:102850009DA701089DA701089DA701089DA7010844
:102860009DA701089DA701089DA701081551000813
:102870009DA701089DA701089DA701089DA7010824
:102880009DA701089DA701089DA701089DA7010814
:102890009DA701089DA701089DA701089DA7010804
:1028A0009DA701089DA701089DA701089DA70108F4
:1028B0009DA701089DA7010800000000998B010851
:1028C00002780B78002A03D0013001319A42F7D008
:1028D000D01A70470023C25C0133002AFBD1581E76
:1028E0007047000002B47146490849000956490082
:1028F0008E4402BC7047C04602B471464908490084
:10290000095C49008E4402BC7047C04603B471465E
:10291000490840004900095E49008E4403BC7047E5
:1029200003B47146490840004900095A49008E44E1
:1029300003BC7047002243088B4274D303098B42C7
:102940005FD3030A8B4244D3030B8B4228D3030C7F
:102950008B420DD3FF22090212BA030C8B4202D321
:102960001212090265D0030B8B4219D300E0090A49
:10297000C30B8B4201D3CB03C01A5241830B8B4252
:1029800001D38B03C01A5241430B8B4201D34B033B
:10299000C01A5241030B8B4201D30B03C01A5241A0
:1029A000C30A8B4201D3CB02C01A5241830A8B4225
:1029B00001D38B02C01A5241430A8B4201D34B020E
:1029C000C01A5241030A8B4201D30B02C01A524172
:1029D000CDD2C3098B4201D3CB01C01A5241830926
:1029E0008B4201D38B01C01A524143098B4201D360
:1029F0004B01C01A524103098B4201D30B01C01A8B
:102A00005241C3088B4201D3CB00C01A5241830804
:102A10008B4201D38B00C01A524143088B4201D331
:102A20004B00C01A5241411A00D201465241104691
:102A30007047FFE701B5002000F0F0F802BDC04686
:102A40000029F7D076E7704703460B437FD4002276
:102A500043088B4274D303098B425FD3030A8B4232
:102A600044D3030B8B4228D3030C8B420DD3FF229C
:102A7000090212BA030C8B4202D31212090265D06A
:102A8000030B8B4219D300E0090AC30B8B4201D31D
:102A9000CB03C01A5241830B8B4201D38B03C01A64
:102AA0005241430B8B4201D34B03C01A5241030BDB
:102AB0008B4201D30B03C01A5241C30A8B4201D38C
:102AC000CB02C01A5241830A8B4201D38B02C01A37
:102AD0005241430A8B4201D34B02C01A5241030AAE
:102AE0008B4201D30B02C01A5241CDD2C3098B4293
:102AF00001D3CB01C01A524183098B4201D38B0110
:102B0000C01A524143098B4201D34B01C01A5241B2
:102B100003098B4201D30B01C01A5241C3088B42F7
:102B200001D3CB00C01A524183088B4201D38B00E2
:102B3000C01A524143088B4201D34B00C01A524184
:102B4000411A00D201465241104670475DE0CA0F5B
:102B500000D04942031000D34042534000229C461B
:102B600003098B422DD3030A8B4212D3FC22890125
:102B700012BA030A8B420CD3890192118B4208D3FB
:102B8000890192118B4204D389013AD0921100E05D
:102B90008909C3098B4201D3CB01C01A5241830971
:102BA0008B4201D38B01C01A524143098B4201D39E
:102BB0004B01C01A524103098B4201D30B01C01AC9
:102BC0005241C3088B4201D3CB00C01A5241830843
:102BD0008B4201D38B00C01A5241D9D243088B4299
:102BE00001D34B00C01A5241411A00D2014663463C
:102BF00052415B10104601D34042002B00D54942A0
:102C0000704763465B1000D3404201B5002000F0DE
:102C100005F802BD0029F8D016E770477047C04696
:102C20001C2101231B04984201D3000C10391B0AFC
:102C3000984201D3000A08391B09984201D30009C0
:102C4000043902A2105C40187047C0460403020217
:102C50000101010100000000000000000448054BD4
:102C600010B5834203D0044B002B00D0984710BD11
:102C7000EC000020EC00002000000000064807499E
:102C8000091A8B10C90FC91810B5491003D0044B8D
:102C9000002B00D0984710BDEC000020EC00002075
:102CA0000000000010B5074C2378002B09D1FFF776
:102CB000D5FF054B002B02D0044800E000BF0123E4
:102CC000237010BD6002002000000000D8B401088D
:102CD000054B10B5002B03D00449054800E000BFA8
:102CE000FFF7CCFF10BDC0460000000064020020CA
:102CF000D8B40108054B82B0DA6B0243DA63DB6BB0
:102D000018400190019B02B07047C046001002407D
:102D1000054B82B01A6C02431A641B6C1840019078
:102D2000019B02B07047C04600100240802130B5C0
:102D300080240822454B49009962A40045B2002D29
:102D400000DA81E09C62C046C046C046C046C0462C
:102D5000C046C046C046C046C046C046C046C04643
:102D6000C046C046C046C046C046C046C046C04633
:102D7000C046C046C046C046C046C046C046C04623
:102D8000C046C046C046C046C046C046C046C04613
:102D9000C046C046C0469961C046C046C046C0460F
:102DA000C046C046C046C046C046C046C046C046F3
:102DB000C046C046C046C046C046C046C046C046E3
:102DC000C046C046C046C046C046C046C046C046D3
:102DD000C046C046C046C046C046C046C046C046C3
:102DE000C046C046C046C0464000C0B29962C04618
:102DF000C046C046C046C046C046C046C046C046A3
:102E0000C046C046C046C046C046C046C046C04692
:102E1000C046C046C046C046C046C046C046C04682
:102E2000C046C046C046C046C046C046C046C04672
:102E3000C046C046C046C046C046C046C046013A2D
:102E4000002A00D07AE730BD9C617CE70004005086
:102E5000054B82B05A6B02435A635B6B184001907A
:102E6000019B02B07047C046001002400222064B90
:102E700099681142FCD00122187399681142FCD064
:102E8000D868C0B27047C0460038004010B5040092
:102E9000000CC0B2FFF7EAFF200AC0B2FFF7E6FF5E
:102EA000E0B2FFF7E3FF10BD0B4B5A7E002A02D0C1
:102EB0009B7E002B0ED10322084B01211A700022A9
:102EC000074B1A70074B1970074B1B788B4201D0C8
:102ED000064B1A707047C046801F00205108002022
:102EE000531F002050080020371F002053000020EF
:102EF000084B1A68293213780133DBB2072B00D94B
:102F0000012313700122044B1A80044A044B1278E7
:102F10001A707047541F00204E080020371F0020F1
:102F2000530000200122064B1A80064B1A683432E7
:102F300013780133DBB2032B00D1002313707047E9
:102F40004E080020541F0020012305498A7F5A4063
:102F50008A77044A1370044A1370044A1370704746
:102F6000801F00202F08002032080020651F00204D
:102F70000A4810B502780A4B002A0CD00633D97FD4
:102F80004C426141D97701235A400270054A1370BF
:102F9000054A137010BD0533F1E7C0462E08002026
:102FA000801F002032080020651F00200E490F4AB4
:102FB0000B7870B5501D0E4D0E4C002B0CD02D789B
:102FC000C57720780632D077012253400B700A4B28
:102FD0001A700A4B1A7070BDC67F2E70951DED7F5A
:102FE000C37725701800EDE72D080020801F002012
:102FF0002C0800202B08002032080020651F00202C
:10300000012304490A785A400A70034A1370034A9C
:1030100013707047F31E002032080020651F002047
:103020000123044A11784B4013700222024B1A709C
:103030007047C04624080020230800200123044ACA
:1030400011784B4013700222024B1A707047C04631
:103050002208002023080020044B05481A8850430A
:10306000044A801880B21880000A704728000020A7
:103070000508000019360000F0B5130007270322E9
:103080003B405A431B4B85B0D31801930123039156
:103090009C46002102900020019B5B5C0093009BFA
:1030A0006246C340134213D0039B1C18A3B23F2BAC
:1030B0000ED86546029B5A18E3B23C40A540D2B2F6
:1030C000ECB2072B0CD80C4BD5189B5C1C432C7016
:1030D00001300528E3D101310329DCD105B0F0BD71
:1030E000DB08013BDB01054E9D18AD19F618B35CFA
:1030F000ECE7C046D8C2010859080020E51A0020B4
:10310000054B1A78002A06D000221A70034B0132B0
:103110001A70034B1A707047E0070020601F0020F0
:10312000651F002030B50E4B1B689A8B0D4B18683D
:103130000D4B19680D4B1C6C844207D15C6C8C42A2
:1031400004D11C0048342488944207D01C00002578
:103150004A3418645964483325801A8030BDC0460B
:10316000701E002044080020C8040020CC04002069
:103170000E4B10B51B68191E13D00D4A1268918BA7
:1031800000290ED083420ED80A4A126882420AD31E
:10319000C01AFFF7CFFB084B0021984201D801303D
:1031A00081B2080010BD0021FBE7C04644080020A2
:1031B000701E0020C8040020FEFF000010B5094C5E
:1031C0002278531CDBB2172B00D90023064952008A
:1031D0005052064A23701378172B01D8013313700D
:1031E00010BDC046950400209604002094040020E1
:1031F0000122054B52421A800023044A1360044AFC
:103200001370044A137070470400002090040020DB
:103210008D0400208C04002070B51E4A0300126843
:103220000232D47F221C082C00D208221A491B48E3
:103230000D88083A92B2854206D100200B80844264
:1032400001D0A342404170BD15482E1C854201D9D2
:103250001448068814481036B6B21C1C834201D9A3
:10326000124804880834A4B29E4202D80120934236
:10327000E9D2A64202D801209442E4D29D4202D96A
:1032800000200B80DFE707226A430432D318DB08F3
:10329000F6E7C046701E002004000020FFFF00007B
:1032A000EFFF00001CB60108F7FF00001EB6010882
:1032B000002806D0044A13780133DBB2032B01D86F
:1032C000137070470023FBE789040020F8B5104C09
:1032D0002368002B02D000232360F8BD0D4B0E4F56
:1032E0001B681B691D680D4B2560597B4A42514183
:1032F00048224A439B1888331E683E60FFF778FFD8
:10330000B54201D926603D60FFF70CFFE5E7C046F6
:1033100044080020541F0020C8040020801F002003
:10332000074B1B78012B0AD0064B1B78012B06D0CC
:10333000012205494B7E53404B76044B1A7070476F
:10334000371F00205E1F0020801F00202F08002054
:103350000021012210B5124B1960124B587B4240DC
:1033600011485A7304788C4202D001700F480170E2
:10337000991DC87F002801D0501CC8770533D97F1C
:10338000002901D00132DA770123094A1370094A72
:103390001370094A13700022084B1A7010BDC04602
:1033A00044080020801F0020531F0020501F0020D1
:1033B0002F080020320800204E000020530000207B
:1033C000092802D83030C0B2704703000A3BFF2002
:1033D000052BF9D8014AD05CF6E7C046A2C0010827
:1033E00010B50E4A0E48137B59424B410021DBB207
:1033F00013738B4200D04831883152180260094A59
:103400001378002B03D101331370074A1370002087
:103410000EF06EFA0A22054B1A8010BD801F0020A4
:10342000701E002043080020651F0020DC070020DC
:10343000194B10B51B78002B11D0FFF761FE174A0E
:10344000174B12781B7852B2002A1BD1154AD27F33
:10345000002A05D1032B02D003200EF0EBF810BD9B
:10346000114A1278002AF5D16420104908801049C9
:103470000A7010490A7001210F4A117001210A4A8D
:103480001170E7E7084A11780029E3D114200B4AAC
:1034900010800B4AF1E7C046DE070020181F00200D
:1034A0005E1F0020851F0020EE1E0020DC0700208C
:1034B0004E00002043080020651F00204A0800201D
:1034C0004F000020034B10B51B78002B01D1FFF7F4
:1034D000AFFF10BDE91E0020302210B500210448C6
:1034E00017F088F90022034B1A70034B1A7010BDB5
:1034F00096040020950400209404002010B5084B89
:103500001B78012B01D9042B05D1062008F018FAED
:10351000062008F015FA0022024B1A7010BDC046B2
:10352000C01F002034000020A023402210B5DB057E
:103530009A6215F009FD10BD10B5032804D00728C4
:1035400009D0074B185C03E0064B1878A6231843F4
:10355000FFF7EAFF10BD044B18781530C0B2F7E74B
:1035600054C30108580800202A00002070B50C4BF5
:103570001B6834331C78012C0AD10321094D2878AB
:103580000130FFF747FB2970200009F01BF870BDE0
:10359000002CF9D1044D052128780130F1E7C0460F
:1035A000701E00202A0800202908002070B508F0AD
:1035B000D3FB114B041E00D1104B19680D002D35A3
:1035C0002A78343153425341D8B228700B78012BFA
:1035D00007D153425A4103205242104015F0F4FCE7
:1035E00070BD002CFAD000208242F7D1044B18782D
:1035F0000130C0B2F2E7C046701E0020541F002008
:103600002808002070B5868B0068714308183100C7
:103610001C00150008F09CFAA04206D8A84203D26C
:103620003100A01B08F094FA70BD2800FCE70000F0
:10363000F0B5212585B0FFF775FD164B1E68164BBA
:103640001B785BB20193154B1B680293144B1B68EC
:103650000393144B1F783000039B029A0199FFF7E4
:10366000D1FF013DEDB204003060002D07D0FFF71F
:103670007FFD002803D000230B4ABB4202D120006B
:1036800005B0F0BD0232911E09888142E3D00133BA
:10369000DBB2F2E7701E0020181F00204408002053
:1036A000C804002016050020CC04002010B50EF040
:1036B00029FE0122044B1A70044B1B78002B01D009
:1036C000034B1A7010BDC046C20700204C080020F2
:1036D0003208002070B50B4D00202B78002B0DD147
:1036E000094B1C78002C06D00A226243074B1A7043
:1036F00000232B7070BDFFF7D9FF20000DF09AFF5B
:10370000F6E7C046C2070020C61F0020C107002000
:103710000F4B70B51B78002B17D00E4D2B78002B5C
:1037200015D0002913D001230B4C0A000100812081
:10373000237015F02DF8094B2278002A07D0013BA1
:10374000002BF9D123702B7001E012F085F970BDC8
:10375000C0070020BF070020BE070020A086010090
:10376000264B70B51A688023D28BDB009A422ED28A
:1037700000230A2518002249224E0A78DCB294421E
:1037800009D300280DD1042A21D1002301220B7076
:103790001D4B1A7007E06843F45C0133001980B2D6
:1037A000ECE7042AF1D000220138184D84B2110050
:1037B00020006E7B08F058FC002809D1124B1B78C2
:1037C000012B02D80222124B1A7009F0A1FF70BD22
:1037D000002302210E4A1370321D520054530D4A29
:1037E000760011700C4A745313700C4A1370687B86
:1037F00009F08EFD09F08CFFE7E7C046541F00205A
:10380000531F0020D0030020581F0020801F0020DD
:10381000511F002023080020220800202408002037
:10382000F8B5264B264C1A78002A03D0A11DCA777A
:1038300000221A700022234B1A70FFF74DFE224B14
:103840001F68224B3E001B78002B01D0204B1E68C6
:103850008022204BD2001B8893421CD2207BB2B224
:10386000031D5B00E25202214300E25209F050FDC9
:10387000B74204D009F04CFF0122174B1A70002305
:10388000383423700AF0BCF901200EF031F801221F
:10389000124B1A70F8BD124B1D6828002E6008F0FC
:1038A00065FD280008F04EFCB742E8D001232A004D
:1038B000217BE88B0AF036F9E1E7C0468804002056
:1038C000801F0020181F002084040020C307002050
:1038D000C807002048080020651F0020601F002046
:1038E000701E002010B5174B174CDB7F002B19D032
:1038F000164A1378002B03D000231370144A137058
:10390000144A637B11688022C98BD20091420AD28B
:103910005B00E2189288E25201220F4B1A700F4BA3
:1039200092181A7010BD04335B00E05A0023012185
:103930001A0008F0D3FB0A4B9842F3D0637B5B007C
:10394000E052E9E7841F0020801F0020531F002061
:10395000501F0020541F0020B4070020230800201F
:10396000FFFF00007047FEE770477047014B024AB7
:103970009A60704700ED00E0002800080E4B1A78AE
:1039800082420DD018700D4B0D4A1B5C0D491380FF
:103990000D4A12889B1A9AB21BB2002B01D10B70F0
:1039A00070471811002B03DD53421B115B4218B204
:1039B000064B18800123F2E7E918002073C30108C1
:1039C000E0180020E6180020E4180020E21800208B
:1039D000922210B5054B5200985CFFF7CFFF0022F2
:1039E000034B1A80034B1A7010BDC046801F002085
:1039F000341F0020E7180020F8B5802380267E4F72
:103A00007E4C9B007600BB610500A662C046C046A6
:103A1000C046C046C046C046C046C046C046C04676
:103A2000C046C046C046C046C046C046C046C04666
:103A3000C046C046C046C046C046C046C046C04656
:103A4000C046C046C046C046C046C046C046C04646
:103A5000C046C046C046C046C046C0468020BB6285
:103A60002843FFF763F92368654A13402360C04683
:103A7000C046C046C046C046C046C046C046C04616
:103A8000C046C046C046C046C046C046C046C04606
:103A9000C046C046C046C046C046C046C046C046F6
:103AA000C046C046C046C046C046C046C046C046E6
:103AB000C046C046C046C046C046C046C0461023A9
:103AC0000020400080B2844601212069A661400A9E
:103AD000084061460843C046C046C046C046C0468E
:103AE000C046C046C046C046C046C046C046C046A6
:103AF000C046C046C046C046C046C046C046C04696
:103B0000C046C046C046C046C046C046C046C04685
:103B1000C046C046C046C046C046C046C046C04675
:103B2000C046C046C046A662C046C046C046C04663
:103B3000C046C046C046C046C046C046C046C04655
:103B4000C046C046C046C046C046C046C046C04645
:103B5000C046C046C046C046C046C046C046C04635
:103B6000C046C046C046C046C046C046C046C04625
:103B7000C046C046C046C046013B002B00D0A0E76F
:103B800023681A408023DB021343236080239B00B9
:103B9000BB61C046C046C046C046C046C046C046DF
:103BA000C046C046C046C046C046C046C046C046E5
:103BB000C046C046C046C046C046C046C046C046D5
:103BC000C046C046C046C046C046C046C046C046C5
:103BD000C046C046C046C046C046C046C046C046B5
:103BE000C046A661A361074B302D02D0472D01D1FD
:103BF000054B1880F8BDC04600140050000400506A
:103C0000FFFFF3FF320000203000002070B50600F7
:103C100069200D00FFF7F0FE040003040BD46A20B6
:103C2000FFF7EAFE0C4B24030005000D1C40044383
:103C30000220346070BD6820FFF7DEFE0300002024
:103C40001A04F7D40548DB04DB0C58430449FEF79B
:103C5000FBFE28800120EDE700F0FF00EB120000E2
:103C600010270000F7B5694B694A00931B78019251
:103C7000002B26D113785BB2002B0AD0654B664A25
:103C80001B889B18062B04D8644B1B78002B18D07C
:103C9000F7BD634B1D786B1E022B27D86149624B21
:103CA0000A78002A03D0614A1278002A06D01A78CE
:103CB000002A1BD05E4A1278002A17D100220A700F
:103CC0001A7001200DF014FE01225A4B1A70019B4C
:103CD0001B785BB2002BDBD0574B1A78502AD7D811
:103CE000002A00D089E0FFF79BFDD1E74B4B012470
:103CF0001B78524F002B0AD03B78DAB2002B05D14B
:103D0000A5421AD00ED9AB1EA34229D900243B7874
:103D10004B4E002B69D1002C67D13378002B41D159
:103D20003470B5E7474BDB7D002BEFD0464B19785D
:103D30000029EBD002241A70E9E7444B1978394B7B
:103D4000002906D01A70404B1A78002ADED00022D3
:103D5000F0E71A78002AF6D11D706432334BF1E790
:103D60003B4B1978304B002914D03A490978012986
:103D700010D11A70344E3378002BC7D00C20FFF7C7
:103D80003BFE0405A40F013C63425C410023640038
:103D90003370BCE71A78002AECD101321A70244B38
:103DA0006332E6E72C4BDB7F002BB9D0023D012DBF
:103DB000B6D80C20FFF720FE0005800F0128AFD1F8
:103DC000254BDB7F002B00D162E7A0238022DB059F
:103DD00052009A62214BEC3A1A800023009A137029
:103DE00001223A701E4A137052E700233370012CEF
:103DF00000D166E7022CE3D04AE719235343194A5E
:103E000013800022184B1A7042E7C046D5070020E5
:103E1000181F00204808002000FCFFFFDE070020DC
:103E2000DB070020D9070020D6070020D407002098
:103E3000D3070020601F0020A81F0020D207002009
:103E4000D0070020801F0020D1070020DA070020C3
:103E5000D8070020D7070020831F0020CE070020AE
:103E6000781E00204A0800204F000020F8B50C0002
:103E7000374B302802D0472805D1364B1A88A2424A
:103E800000D142E11C8080238026334F334D9B00BC
:103E90007600BB61AE62C046C046C046C046C04662
:103EA000C046C046C046C046C046C046C046C046E2
:103EB000C046C046C046C046C046C046C046C046D2
:103EC000C046C046C046C046C046C046C046C046C2
:103ED000C046C046C046C046C046C046C046C046B2
:103EE000C046C046C046BB62FEF720FFC046C04683
:103EF000C046C046C046C046C046C046C046C04692
:103F0000C046C046C046C046C046C046C046C04681
:103F1000C046C046C046C046C046C046C046C04671
:103F2000C046C046C046C046C046C046C046C04661
:103F3000C046C046C046C046C046C0461023AE621A
:103F400022B2002A00DAE1E080229200AA6207E0B1
:103F50003200002030000020001400500004005007
:103F6000C046C046C046C046C046C046C046C04621
:103F7000C046C046C046C046C046C046C046C04611
:103F8000C046C046C046C046C046C046C046C04601
:103F9000C046C046C046C046C046C046C046C046F1
:103FA000C046C046C046C046C046C046C046C046E1
:103FB0006400AE61A4B2C046C046C046C046C0461A
:103FC000C046C046C046C046C046C046C046C046C1
:103FD000C046C046C046C046C046C046C046C046B1
:103FE000C046C046C046C046C046C046C046C046A1
:103FF000C046C046C046C046C046C046C046C04691
:10400000C046C046C046AE62C046C046C046C04676
:10401000C046C046C046C046C046C046C046C04670
:10402000C046C046C046C046C046C046C046C04660
:10403000C046C046C046C046C046C046C046C04650
:10404000C046C046C046C046C046C046C046C04640
:10405000C046C046C046C046013B002B00D06FE7BB
:10406000C046C046C046C046C046C046C046C04620
:10407000C046C046C046C046C046C046C046C04610
:10408000C046C046C046C046C046C046C046C04600
:10409000C046C046C046C046C046C046C046C046F0
:1040A000C046C046C046C046C046C046C046C046E0
:1040B00080239B00BB61C046C046C046C046C04688
:1040C000C046C046C046C046C046C046C046C046C0
:1040D000C046C046C046C046C046C046C046C046B0
:1040E000C046C046C046C046C046C046C046C046A0
:1040F000C046C046C046C046C046C046C046C04690
:10410000C046C046C046AE61AB61F8BD8022920099
:10411000AA6125E770B590B00400402268461849AE
:1041200016F097FC392C08D82F2C25D8232C25D015
:104130000EAD2A2C09D010B070BD2300413B373C96
:10414000032BF8D8A4006C44250028880D4C0E4E93
:1041500060430E498019FEF7EDFB81B27120FFF735
:1041600085FE6B8809495C43A019FEF7E3FB81B229
:104170007220FFF77BFEDEE7303CE3E70FADE4E7BC
:10418000F0B401084C9301008813000010270000D0
:1041900010B5094C2388002908D04022C24013439F
:1041A00099B233202180FFF761FE10BD41214942C1
:1041B00001411940F5E7C046C81A002010B50400B7
:1041C00051200A49FFF752FE07200949FFF74EFE2A
:1041D00021050820090DFFF749FE802321021B025B
:1041E000090D08201943FFF741FE10BD33A0000060
:1041F000D70A00000C4B10B5C1184B1E99410400A2
:1042000049420A4B890A8902C9185120FFF72EFE3C
:104210000748084B60430849C018FEF78BFB81B282
:104220000720FFF723FE10BDBFF5FFFF40940000FD
:104230009826030050C30000A086010070B504005A
:1042400031200D00FFF7D8FBA02361051B02490DAB
:10425000194306004620FFF709FEC0216D056D0DCC
:10426000490129437920FFF701FE7A200449FFF72D
:10427000FDFD04213143312089B2FFF7F7FD70BD08
:104280009A28000010B5040081B23820FFF7EEFD37
:104290003920210CFFF7EAFD10BD000010B50349DD
:1042A000000201434720FFF7E1FD10BD426000001E
:1042B00010B537200549FFF7D9FD00213020FFF761
:1042C000D5FD30200249FFF7D1FD10BD1F9F000032
:1042D000F1BF000010B53120FFF78EFB0223984399
:1042E00081B23120FFF7C2FD00212B20FFF7BEFD78
:1042F00010BD000070B505003120FFF77DFB040004
:10430000002D06D108239C43A1B23120FFF7AEFD5A
:1043100070BDAB1E5A1E9341AD21DB0389011943C9
:104320002920FFF7A3FD0120A84280410549404212
:10433000800301432820FFF799FD0821214389B21A
:10434000E3E7C046382B000010B53120FFF754FBDF
:104350000423984381B23120FFF788FD10BD10B5CA
:1043600000212420FFF782FD10BD0000DB2110B5E5
:104370002120C900FFF77AFD24200249FFF776FDCE
:1043800010BDC0467FC1000010B550200149FFF7A5
:104390006DFD10BD18BB000010B550200149FFF79E
:1043A00065FD10BD183B000010B500213020FFF75F
:1043B0005DFDE82137204901FFF758FD10BD0000E1
:1043C00010B500217020FFF751FD0020FFF766FFB8
:1043D000FFF7E2FF00213020FFF748FD30200249BF
:1043E000FFF744FD10BDC046F1BF000010B5C3216A
:1043F0007020FFF73BFD72200A49FFF737FDC1210E
:104400005820FFF733FD5C200749FFF72FFD8E2171
:104410005D20C901FFF72AFD5E200449FFF726FD54
:1044200010BDC04665300000655600000432000033
:1044300010B500213020FFF719FD10BD054B10B558
:104440001B78002B05D001210020FFF7A1FEFFF70C
:104450002FFF10BDE91E002010B50400FFF794FFE8
:104460000020FFF71BFF00217020FFF7FFFCFFF784
:1044700076FF30200349FFF7F9FC002C01D1FFF74C
:104480008BFF10BDFEC1000010B530200149FFF7C1
:10449000EDFC10BDFAC3000010B50400FFF766FF85
:1044A000FFF772FF0020844200D00330FFF7F6FED2
:1044B00070200349FFF7DAFCFFF7E6FF10BDC046A6
:1044C000C3C3000010B56720FFF796FAC005C00D02
:1044D00010BD000010B5064B064A1B7811781B0171
:1044E0001943B0231B0248201943FFF7BFFC10BD3E
:1044F000022000200420002010B501240E4B0520CE
:104500001A7854401C70614261410F23494219409E
:10451000A1231B01C91811F0B0FB0022074B9442E4
:1045200002D11A008332127882331A70FFF7D2FF59
:104530000122034B1A7010BD25080020801F0020A7
:10454000651F002010B5FFF79DFEC0215120890096
:10455000FFF78CFCFFF7ACFE10BD10B50021042066
:10456000FFF716FE00210320FFF712FE10BD00002A
:104570000B4B10B5984208D801210420FFF708FE24
:1045800000210320FFF704FE03E0013002D1FFF712
:10459000E4FF10BD00210420FFF7FAFD0121F0E740
:1045A000FF3EAB0170B51D4B1B78013B012B27D99A
:1045B00000241B4B1B4A1C7013781B4DA34220D0B8
:1045C0001A4B14701C701A4B80221C80A0230126E9
:1045D0005200DB059A62174B1C7011F067FB164BFB
:1045E0001B681868FFF7C4FF144B1E70144B1C7037
:1045F00009F006FB5022134B2C701E70124B1A80D0
:1046000070BD124A137007F0BFFE01200DF070F963
:1046100011F038FE03232B70F2E7C0465E1F002026
:10462000531F0020521F002053000020171F00209E
:1046300030080020781E0020701E0020651F00201A
:10464000B81F002032080020E61E00204C08002081
:1046500070B50F4D04002A68002A08D00023180006
:104660000C49A142584191425B41984202D020003E
:10467000FFF77EFF20002C60FFF704FE00213020B2
:10468000FFF7F4FB044B30201988FFF7EFFB70BDF8
:1046900090040020FF3EAB018A040020A023F7B560
:1046A000160008220500DB059A6203200C00FEF7C5
:1046B000DDFB2800FEF7EAFBC0232E4DDB00AA68D5
:1046C0001100194001911A420AD10F2E0AD8A619D9
:1046D000B44249D0FF20FEF7C9FB20700134F7E750
:1046E000EA68ECE740222B68042093432B6014F027
:1046F00033F8052014F030F8802284211E4B52013B
:104700005A601E4F0420490114F008F805201C4986
:1047100014F004F8FC601B4C31000420BC6014F061
:104720000DF8194A194B3100D3609460022405201A
:1047300014F004F8019B164E042033703B682343A9
:104740003B6014F017F8052014F014F801236A6890
:10475000134340226B602B6813432B606B681C4330
:104760006C603378002BFCD0A0230822DB059A6113
:10477000F7BDC0460038004000000240440002403F
:10478000101000000C38004058000240DC180020D7
:10479000DA1800200120024B1B699B0A98437047DE
:1047A0000004005000B503000078002208280ED84D
:1047B000FEF7A2F8050F151D3522272F2F00012225
:1047C000552904D0AA2901D0002000BD05221A7065
:1047D000FAE7AA394A42514149001970F4E7032225
:1047E0000029F4D005394A4251418A00EFE7484296
:1047F00041411A70C8B2E8E700225529E7D10632D4
:10480000E5E7032901D10722E1E70429DFD10822E6
:10481000DDE7122903D8102901D0024801700120D8
:104820001A70D2E72B0000200022034B1A70034BB2
:1048300001321A707047C046D9080020651F002059
:10484000F7B5A026402750390430F605C5B20193CC
:10485000C8B2B762140014F077FB10202B0918437C
:1048600014F072FB0F20284014F06EFB019BB7611F
:10487000E5182078013414F067FBAC42F9D1F7BD9C
:10488000F8B50423124E0400B3624020FEF74CFE3C
:10489000104A002C07D0104B01251F00072C0AD806
:1048A000621ED201D218802321000020FFF7C8FF2A
:1048B0000423B361F8BD290001353A0080230020AC
:1048C000EDB2FFF7BDFF8037082DF4D1F0E7C04609
:1048D0000004005059080020E51A002010B50820F7
:1048E000FFF7CEFF10BD10B50130C0B2FFF7C8FF13
:1048F000012012F057FD10BD10B50020FFF7C0FFDA
:1049000010BD0000F7B5041E294E2A4F2BD00024FD
:10491000FEF7A2FB7021FEF793F8A5192970FEF7A8
:104920009BFB0321FEF78CF83D19013101342970FE
:10493000202CEDD109F032FC002509F06BFB00249E
:10494000EFB2BB00DBB20193725DE100611A511856
:10495000D219121909B2D2B2002C16D10198FEF761
:104960008BFB0134F0E735002B783A5D9B18DBB206
:104970002B70702B04D9FEF76FFB0F2318402870A3
:1049800001340135202CEFD1D4E7032C02D90123C7
:104990001A4202D00198FEF76FFB0134082CD3D1E4
:1049A0000135202DCBD1FFF7A7FFFFF797FFF7BD0C
:1049B00002080020E207002070B5254B1C78002C6F
:1049C0003ED0244BDB7F013B3B2B39D8224D2B784B
:1049D000002B35D1214B1B78002B31D1204B1B787C
:1049E000012B2DD007F0B8F9002829D11D4B1B78D9
:1049F000002B25D11C4B1B78002B03D01B4B1B78A5
:104A0000002B1DD01A4B1B78002B19D1194B1B788A
:104A1000002B01D0032B13D1631E012B11D810F0F2
:104A2000A3FDFFF769FFFFF759FF012300202B705B
:104A3000114B1870114B1870114B187012F0B2FC1A
:104A400070BD032CF1D10120FFF75CFFEDE7C046FC
:104A5000E1070020881F0020E00700202E1F002013
:104A60005E1F0020141F0020171F0020DB1E0020E7
:104A70002B1F0020371F0020DF070020601F0020B1
:104A8000651F0020042370B5074DE220AB62FEF7DE
:104A90004BFD002420000134E4B2FEF74DFD082C4C
:104AA000F8D10423AB6170BD00040050042370B53D
:104AB0000024064DAB6220000134E4B2FEF73CFD59
:104AC0000B2CF8D10423AB6170BDC046000400502C
:104AD0000B4B70B51B680B4C584300236568A268EC
:104AE000834200D370BDA1688A4203D99B185B1A28
:104AF0000A00F5E78A42FBD26E1AF318D318F7E7DB
:104B0000EC18002010E000E0324870B50378002B6C
:104B100020D0314B314A0021595E13885B181BB2FB
:104B20001380002917DD2E490024095F994219DD01
:104B30001478002C1CD12B4A013413680720A3439E
:104B4000136013F009FE2000FFF7C2FF8022264BFE
:104B500052009A6270BD0029EAD021490024095F01
:104B60009942E5DB1E4B1B88138000230370DFE7AF
:104B70006401FF212000FDF7DDFEFF2300225B0121
:104B80009C421AD01100194E194D0B0082424B4124
:104B90005B42334001339400FF3301322B51202A12
:104BA000F3D101240F4D2B682342D3D1072013F0FA
:104BB000E1FD2B681C432C60CCE70121094A07204A
:104BC00013688B43136013F0C7FD8022064B52001D
:104BD0009A61BFE7E6180020E2180020E4180020E0
:104BE000E0180020001400400014005000FFFF00F7
:104BF000F0180020782170B51B4A1C4B12781C4C11
:104C00004A431A801B4A1C4B12781A701B4B1D78A2
:104C10001B4BDB7F002B06D1FEF7DAFE002D01D007
:104C2000FEF76CFC70BD0122164B1A702623FF3371
:104C3000E05CFEF7A3FE002D05D0134B1B78002B84
:104C40000CD1FEF75BFC0834E17F00230F4A3D29BD
:104C500002D00A234B4301331380E3E7FFF754FFED
:104C60000B48FFF735FFE8E752000020301F002017
:104C7000801F0020E9180020E818002034000020E0
:104C8000881F0020E7180020E6180020341F0020AD
:104C900010270000064910B50B78002B03D0054AF9
:104CA000054B1278DA7700230B70FFF7A3FF10BDD6
:104CB0002708002026080020881F002080220A4B99
:104CC000520243439B1810B571200C00590CFFF79A
:104CD000CDF8FFF761FBFA2080006043FFF7F8FE94
:104CE000FFF752FB10BDC0461DA61400F8B51C000E
:104CF00005000E001700FFF747FB201E05D0A0237C
:104D000080220320DB0552009A61FFF7C7FA12499F
:104D10003F02394389B27020FFF7A8F8FFF7B4FBD0
:104D20000E48FFF7D5FE31002800FFF7C7FF002C23
:104D300007D0A0238022DB05520000209A62FFF7F3
:104D4000ADFA00217020FFF791F830200449FFF7F9
:104D50008DF8FFF721FBF8BD0080FFFF50C3000076
:104D6000FEC1000010B500213F20FFF77FF8682149
:104D70005920FFF77BF80348FFF7AAFEFFF758FB1F
:104D800010BDC0463075000010B5FFF7EBFF0021E5
:104D90000220FFF76BF800213F20FFF767F8FFF7CD
:104DA00087FAC0213F208901FFF760F859200449A4
:104DB000FFF75CF859200349FFF758F810BDC046CB
:104DC000684000006830000070B50D000400FFF777
:104DD000DBFAC22170200902FFF748F880230B4953
:104DE0005B026943C9187120490CFFF73FF80020A6
:104DF000844200D00330FFF751FAFFF745FB044827
:104E0000FFF766FEFFF7C8FA70BDC0461DA6140086
:104E100050C30000F0B5FA260500002485B00393C6
:104E20000AAB1F880BAB1B88B6007343019102923B
:104E30000093285D002801D105B0F0BDFFF76AF9A5
:104E4000FFF7AAFA019B002B02D00298002C06D093
:104E50002B5D03982A2B02D0232B00D038007043FF
:104E6000FFF736FEFFF790FA0098FFF731FE0134A6
:104E7000DFE7000070B5A0250826094CED050520E8
:104E8000AE62FDF7F3FFFF20FDF7F0FFAE61C00754
:104E900005D50A20013CFFF71BFE002CEFD170BDA9
:104EA00040420F0070B5A02408250600E405A56265
:104EB0000620FDF7DBFFA561FFF7DCFFA5622020E0
:104EC000FDF7D4FF3000FDF7E1FFA561FFF7D2FF4A
:104ED00070BD000010B50400FFF7E4FF054B1B6830
:104EE000A34205D18022FF210348520115F082FC24
:104EF00010BDC0462C000020DA080020F0B587B0B5
:104F00006B46049003921A7C8023A0255B000291DB
:104F10009B1AED05039A01929A4200D90193082346
:104F20001C00AB620620FDF7A1FFAC610220AC6261
:104F3000FDF79CFF0498FDF7A9FF029C019AA618B3
:104F40000F2A5BD94022314C04202368304E934312
:104F5000236013F001FC052013F0FEFB80222D4B93
:104F600052015A600021042013F0D8FB9021052043
:104F700013F0D4FB284F294B0420F3600199B7604C
:104F800013F0DCFB264B02990520D9609F60019944
:104F900013F0D4FB234B022705930023059904202B
:104FA0000B7033683B43336013F0E4FB052013F0D0
:104FB000E1FB0123626813434022636023681343CB
:104FC000236063681F436760059B1B78002BFBD041
:104FD0000823AB61FFF74EFF019A049B944663449C
:104FE0000493029B63440293039B9B1A03938023C5
:104FF000039A5B00002A8DD107B0F0BD2078013400
:10500000FDF734FFB442F9D1E2E7C0460038004072
:1050100044000240000002400C380040DC18002030
:1050200058000240DA180020F0B587B005938023BD
:105030000705040B3F0D5B010190029103922403CD
:10504000DE1B039B002B03D1FFF714FF07B0F0BD5D
:10505000FFF710FF039DB54200D935002B4E336892
:10506000A34206D08022200029495201FFF716FBF7
:105070003460274E2A00BE193100029815F030FD29
:10508000002826D00023F25CFF2A31D101339D4253
:10509000F9D100232A0030000299049315F0D9FCBD
:1050A000049B002B2DD02000FFF7FCFEFFF7E2FE53
:1050B000059B174E002B1DD0EF193A003100200040
:1050C000FFF71CFF80225201FF21D21BF01915F0BF
:1050D00091FB019B00275B190193029B5B190293D3
:1050E000039B5B1B039380235B011E00E418A8E76E
:1050F0000123CFE78022310020005201FFF7FEFE9E
:10510000E7E72A0002990198F8E7C0462C00002042
:10511000DA08002080201C4980010B6810B503428A
:1051200030D00224194B1A6822422BD01A68A243AD
:105130001A6048600A20FFF7CBFCC021144A154BC7
:1051400049019868084202D0013A002AF9D1802129
:105150000F4A9868084202D0013A002AF9D1C021CA
:105160000B4AC9009868084202D0013A002AF9D1D6
:1051700002215A688A435A605A6801398A435A6040
:10518000054B197010BDC0460000024044000240AB
:105190001127000000380040DA18002070B54026C2
:1051A0002025094C0120A661FFF792FCA561012092
:1051B000FFF78EFCA6620120FFF78AFCA5620120A2
:1051C000FFF786FC70BDC0460014005070B5402546
:1051D0002026094C0120A562FFF77AFCA662012077
:1051E000FFF776FCA6610120FFF772FCA5610120A4
:1051F000FFF76EFC70BDC04600140050F7B5234C9D
:10520000234A2368019013402360082300252027A8
:10521000012600933000A762FFF75AFC3000A76117
:10522000FFF756FC3000FFF753FC23696D00EDB229
:105230005B0600D535433000A762FFF749FC009BB1
:10524000013BDBB20093002BE4D12268104B01201C
:105250001A4080235B0113432360A762FFF738FCE9
:10526000019A4023002A0ED0A36120260120FFF7D7
:105270002FFCA6610120FFF72BFCA6620120FFF79F
:1052800027FC2800FEBDA362EFE7C04600140050D3
:10529000FFCFFFFFF8B52023264C0500A3620120B5
:1052A000FFF716FC08266BB2002B3EDB4023A362FF
:1052B00020270120FFF70CFC013E0120A761FFF72A
:1052C00007FC6D000120A762F6B2FFF701FCEDB20A
:1052D000002EE8D140252368174E0120334023607B
:1052E000A561FFF7F5FBA7610120FFF7F1FBDF37B1
:1052F00023691A002A402B421AD0013F0120FFB235
:10530000FFF7E6FB002FF3D101256D422023A362B6
:105310000120FFF7DDFB802322685B01324013434D
:10532000236040232800A361F8BD4023A361BFE7A9
:105330001500EBE700140050FFCFFFFFF8B578230E
:10534000802680270025164C3602A361FF010A2023
:10535000FFF7BEFB23691A003240334212D03B42B2
:105360000FD09A0417D50322DB040BD50135052D88
:1053700013D078230722A361521B773B9340A3628B
:10538000E5E70122074BA9005B18985C1328EDD0D4
:105390007823A361F8BD0222F4E71320F8E7C046A2
:1053A000000400505FC3010810B532246320FEF7EB
:1053B00023FBC0B2C72806D9013C0120E4B2FFF7A5
:1053C00087FB002CF2D1FFF77DF8FFF77BF810BDCB
:1053D00070B5FFF7E9FF1A4A0400031C904201D997
:1053E000184B1B88184A083312689BB20232D17FCF
:1053F000164A1588164A954204D1002901D09942CF
:1054000012D970BD134E2A1CB54201D9124A128816
:10541000103292B29A42F4D80A1C082900D208220B
:10542000083A92B29A42ECD8AF204000FFF750FB06
:10543000FFF7BAFF231C844200D2031C98B2E0E7B6
:10544000F7FF00001EB60108701E002004000020B7
:10545000FFFF0000EFFF00001CB60108604BF0B535
:105460001C68604B85B01B68002B00D1A8E05E4B28
:105470001B78002B00D19DE0A31CDB7F002B00D10B
:1054800098E03020FEF7B8FA0626584A584B1040EC
:105490001880FEF7CDF82060200006F067FF236932
:1054A0001D68544B1B68002B06D0534A127852B229
:1054B000002A4ADD9D424CD32800FFF7C9F8FFF7C8
:1054C00087FF0500FDF77AFE2800FDF7A5FE0028FE
:1054D00061D0A18B4B1EF82B28D8FA2023688000BE
:1054E0000293FDF7B1FA502800DD50200026370066
:1054F00083B2039323691B680193FEF799F8206038
:10550000200006F033FF236918683B4B1B785BB221
:10551000002B21DD019B834223D9029B20002360C5
:1055200006F024FF23691868FFF792F80122334B35
:105530001A70200006F01AFF200006F003FE01207A
:105540000CF0D6F909222E4B2EE0002AB4D09D4251
:10555000B2D9FDF74DFEAFE7002B02D0019B83428D
:10556000DBD3FFF775F8FFF71FFF854209D205006F
:105570000027236802930136039BB6B2B342B9D128
:10558000CBE78542F7D9281A0728F4DD0137FFB2A7
:10559000022FF0D9C1E7013EF6B2002E00D078E725
:1055A0000122164B1E70164B1A800122154B1A70E1
:1055B00005B0F0BD114A1370FEF73AF82060B8E765
:1055C0000E4A0D491370208E0F4AC0000978131837
:1055D0005B68825849B22000FEF714F8EEE7C04637
:1055E000701E00204408002003000020FFFDFFFF84
:1055F0008A04002090040020181F00208D04002041
:105600004A080020601F0020A8C00108F0B5D44B54
:10561000D44C1A7895B0531E182B3DD82300802106
:105620002A331B78C9000593A38D8B4231D01BB25E
:10563000E58D8D4236D02DB2CB490191098802917A
:10564000059900290ED0C9490E780391002E2CD05F
:10565000012E00D140E10323039A1370C44B019A39
:105660001B8813800025C04B01221E88C14B5D574B
:105670002300701929331B78290080B206F02EFD13
:10568000BD4B0700984200D038E1FDF7B1FD00277F
:105690001BE001235B42CBE7012301215B421D009C
:1056A0000591C9E701256D42C6E7B1490298088016
:1056B000002B00DA10E19FB23100380006F0D4FC74
:1056C000002800D108E1039B1E70019B1F80237BF3
:1056D0001A1D5B00E752A94B52001D68A84BA75248
:1056E0001B78EF83002B00D174E1AB1CDB7F002B18
:1056F00000D12EE11022380108A9FEF7CFFF089B48
:105700000193013B033300D920E1152008AB1B2294
:10571000C018002115F06EF8019B0C930E93099BA5
:105720000293029A974B9A4201D9974B0293029B9C
:105730000F24109308AB9B7A08A91A001B0922407A
:105740000A750B770CA8097A06F0ECFC08AB597ABD
:105750000EA806F0E7FC08ABDB7A1C400394022C91
:1057600001D90022039203990CAA11761E092F2B4E
:1057700000D90026D67508AB9B7B0493172B01D963
:1057800004230493049B0CAA049993757F4B49004E
:10579000CB5A01210793938208AB1B7BFF2B00D0D0
:1057A000BBE051760691039B012B00D1C5E0022B93
:1057B00000D1C7E008AB5B7BFF2B06D01B075B0F5C
:1057C000042B00D900230CAA937748226549704C1A
:1057D0000B7B20005343C918883115F03AF90CAA05
:1057E00011002300E78381C981C39C46180088C942
:1057F00088C0634602990398A1610799A18304991F
:10580000D977210034310E70611CC8772100507E99
:10581000293108702000917E2B3001702000D77E46
:105820002D3007702000177F333007702000069F4F
:1058300028300770907F2200002901D01A00230031
:10584000226101226361534B21001A702B002F004B
:105850003231087034331C782D373A78A64201D1A2
:10586000002A16D01E7000233B70A64202D03000E2
:1058700006F0A8FE0020012E03D13878002800D0C1
:10588000032013F0A1FBA64203D00122424B524257
:105890001A803020FEF7B0F8404A414B1040188083
:1058A0000198FEF7D5FEFFF793FD0400FDF786FC97
:1058B0002000FDF7B1FC3B4B002877D001221A7085
:1058C000284B0221187B07F023FD01200CF010F873
:1058D0000122354B1A7086E0230029331A78002DF7
:1058E00000DAB8E6AFB20021380006F0BDFB0028B0
:1058F00000D1B0E601221D4B1A70E6E6002D05DD51
:10590000864200D8E1E6FDF773FCDEE6002D00D10B
:10591000DBE6864200D3D8E6F5E71800084090762B
:1059200058080840D076D806400F507658099B0991
:1059300008400B401077069335E7019B029A9B18AD
:105940000E9337E7019B029A9B1AF9E70022114B4D
:105950001A700022134B1A70029BBB4243D0AFE770
:10596000A91F0020801F0020480800208904002073
:1059700080040020181F0020FFFF0000701E002080
:1059800003000020FFE0F50540420F0090C201082F
:10599000380400208C04002004000020FFFDFFFFDD
:1059A0008A0400208D040020601F00201870019BD5
:1059B0000F4A2B6012780F4B002A01D09B68AB6016
:1059C00001220D4B1A800D4B1A700598FDF770FCE3
:1059D00015B0F0BD029BBB4200D071E7084B1B78AD
:1059E000002B00D06CE70922034B1A80EDE7C0467C
:1059F00063040020380400204A080020601F0020B3
:105A00008D040020F0B585B0041E039107D0324A02
:105A1000324BD17F19700023D377314A137006F0CF
:105A2000B3FC06F099F92F4B01932F4B02930028FA
:105A300012D0A02380220025DB0552009A622B4B56
:105A40001D702B4B1D70019B1D70029B1D7006F07D
:105A50008FF928000BF0EEFD0022264B1E68264B26
:105A6000F78B1F80254B1A70254B039A1A70FDF790
:105A700033FDFDF7BDFB8023224DDB009F4221D289
:105A8000214B187806F0AAFA002804D1013006F05C
:105A9000BDFA08F0DDFB002C03D0F38B1B4A2B6012
:105AA0001360FFF7B3FD1A4B2A681A603222194BB4
:105AB0001A800023184A1370019A1370029A137007
:105AC00005B0F0BD002C03D03368104A2B60136082
:105AD000FFF7C4FCE7E7C046861F002088040020CB
:105AE000C3070020EE1E0020EF1E0020781E0020BD
:105AF0004C080020701E0020480800208904002067
:105B0000181F0020C8070020A91F002084040020BF
:105B1000C40700204A0800204F000020010010B5F3
:105B20000020FFF76FFF074B1B680233DA7F142357
:105B3000002A00D0133B044A13800022034B1A7042
:105B400010BDC046701E00204A0800204F000020F3
:105B50000A4B10B51A68002A01D1094A1A60186860
:105B6000084A4118914206D914F01AFE0C2303602A
:105B70000120404210BD1960FCE7C04654080020D7
:105B8000803200200040002070B506000D00140097
:105B9000FEF74AFE2A4B1B78002B1DD129490B78B2
:105BA000002B19D00122284B1A70122E13D1002C71
:105BB00011D1002D0FD0254B1A70254B254A1C7092
:105BC0001378002B01D10B7005E02D21013BDBB2D6
:105BD0001370214AD15470BD112E1DD0122E13D036
:105BE00000230A2E1FD0AC42F5D101201B4A1749D1
:105BF00012780870002A1DD0182B1BD8184ADA40DA
:105C0000024217D00223DEE7164B002C02D04833A5
:105C10001B78E8E74733FBE7124B002C01D04A33EF
:105C2000F6E74933F4E79C42DDD024220D4BFF32E6
:105C30009B5CD8E70C4A9B009B589847CBE7C04633
:105C4000371F0020161F0020F11E0020511F0020CA
:105C5000530000204208002033080020521F00207B
:105C60002CDCF201801F0020F0C201080E4910B5A3
:105C70000A780E4B002A0AD10833D87F0C4A1070DC
:105C80003D22DA7701230B70FEF7B4FF10BD262109
:105C9000084AFF31595C12780833914202D1002240
:105CA000DA77F1E73D22FBE727080020801F00207C
:105CB00026080020E8180020BFF34F8F034B044A4A
:105CC000DA60BFF34F8FC046FDE7C04600ED00E04D
:105CD0000400FA05F7B50600FDF712FA494B1C68F7
:105CE000002C0AD0484B1B78002B06D1B01E434233
:105CF00058412100800011F0F9FEE122434B444F4E
:105D000052011A803B78002B01D00FF0CFFFA02367
:105D10008022DB0552009A613E4BFF3A1A703E4BDF
:105D20001B789B0701D5FEF765FF00223B4B3C4DDE
:105D30009A563C4B0193002A1CD16B1DDB7F002B34
:105D400042D13434FEF7C6FB207806F03BFC30002D
:105D50000BF070FC022E02D03B78002B4DD0324B62
:105D60001B78012B02D000200FF0B0FB0123019A19
:105D70001370F7BD2835FDF73BFA2B78502B1FD950
:105D80002A4A1178002909D1503B1900FA235B00F7
:105D90004B4327499BB20B80012313700022254BF4
:105DA0001A70254A254B116819608021E38BC900C0
:105DB0008B4200D3236813600122214B1A70C0E785
:105DC00000221B4B1A80E9E70635E97F4B424B4125
:105DD0003C205B42FF3003401A48693303801A4B72
:105DE0001A70002902D10122184B1A700022184B98
:105DF0001A700123019A1370A3E70122154B1A7040
:105E0000B4E7C046701E0020DD1A00205A1F002093
:105E1000521F0020781E0020CC070020181F0020F1
:105E2000801F0020651F0020371F0020EF1E00206C
:105E30004A0800204F000020C8070020C4070020A7
:105E4000C3070020DC0700204E000020F01E0020C9
:105E500043080020601F002010B5174B1B78022B51
:105E600008D006F091FA01200BF042FD0220FFF766
:105E700031FF10BD0022114B1A70114B1B785BB221
:105E8000934208D0FA210F4B490019800E4B1A702B
:105E90000E4B01321A7001200BF02AFD0C4B0D4CF9
:105EA0001B78002B04D010F0EDF903232370E0E7FA
:105EB000094B1B78FAE7C0465E1F00204C08002003
:105EC000181F00204A0800204F000020EF1E00206D
:105ED000521F002053000020371F00201E4B10B51A
:105EE0001B78D8B2002B09D11C4B1B78002B04D097
:105EF0000BF0A0FB01221A4B1A7010BD194B1A7837
:105F0000194B1B78134359424B411849DBB20978AE
:105F1000C8B2002905D0012A03D10021144B197001
:105F2000030014490978002912D01349097801297E
:105F30000ED1023A012A0BD80022104B1A70104BD6
:105F400004201B78002B00D00238FFF7C3FED4E7F3
:105F5000002BF4D1D1E7C046DE0700205E1F0020F1
:105F6000601F0020DB070020181F0020DA07002038
:105F7000D9070020D8070020D7070020D607002027
:105F80004C08002010B51A491A4B08781A781A4B99
:105F900000280FD0032A0FD0184A1278D0B2002A56
:105FA00000D108701B88164A9B18062B1DD9FFF7D5
:105FB0002DFB12E0032AF5D11B88114A9B18062BF2
:105FC00003D9104B1B78002BF1D10F4B04201B7809
:105FD000002B00D00238FFF77DFE00230B4A137020
:105FE0000B4A13700B4A137010BDFFF737FAF4E732
:105FF0008D0400205E1F002048080020DE070020DE
:1060000000FCFFFFDB0700204C080020EF1E0020F3
:10601000EE1E00204F000020F7B5814C0E00657B7E
:10602000002902D001227F4B1A70237F002B04D05D
:10603000022802D0FEF7F8FBF7BD7B4B1B78012B43
:1060400003D1784B02221A70F6E7122800D90EE22B
:10605000FCF766FC130016008D0093009900A50064
:10606000DC00DF009B01AA010D02C401C4010D0286
:106070000D020D020D02E901E901FEF793FADBE7DB
:106080006A4B6B491A68D38B5B18062B43D9FEF712
:10609000CBFB231DDB7F002BD3D0664B1B78002B63
:1060A000CFD1654B1B785BB2002B0BD0634B1B78B9
:1060B000032BC1D1624B1B78002BBDD0614B1B88D9
:1060C000002BB9D08023627BDB005100605A9842DC
:1060D000B2D248235343E3181A008020B832128802
:1060E000C000121892B2A63362521A8006F04CF920
:1060F000554B1C68200006F039F9200006F022F804
:1061000001200BF0F5FB0123504A1380504A137015
:10611000504A137090E7138E062B07D111694E4831
:106120000E68864202D84D4B0B6085E701339BB267
:106130001386042B17D14A4B1B78002B01D1053352
:106140001386138E8022D2009B1801229BB26D0011
:1061500063536519AB803E4B1A70424B92181A700C
:10616000414B00226FE7062BEBD90023E8E7012221
:106170003C4B1A70FDF7ECF85EE70122394B1A70C0
:10618000FDF7B0FB58E7FEF74FFB00200634374B16
:10619000E27FE0771A700CF051FB334B52E7002E90
:1061A00004D112F01FFF304B1E7045E705F0B8FB1D
:1061B000051E00D040E71D4B1C688023E08BDB00F0
:1061C000984202D3FDF782F836E705F07FFE0378A8
:1061D00001007F2B0AD97F2213400370E08B05F06A
:1061E00065FE01221F4B1A70214B2CE722002E3234
:1061F00013780133DBB2192B00D92B001370012364
:1062000021001A00E08B12F09DF8EAE7FCF770FE1F
:1062100012E7184D2B78002B2ED010F0E7FF0BE77C
:10622000801F0020511F0020371F0020541F002016
:1062300000FCFFFF321F0020181F00205E1F0020FF
:10624000EE1E00204A080020701E00204E0800208C
:10625000B4070020601F0020FFE0F50500E1F50510
:1062600034040020230800205300002033040020C1
:10627000B30700200B1F0020621DD27F804B1A70D5
:10628000A21D804BD27F1A707F4B1A78002A01D151
:1062900001321A7000237D4AA38413707C4A137064
:1062A00006F072F87B4A7C4F1378002B04D17B4BAD
:1062B00039781970012313700126794B30001E7054
:1062C0000BF016FB774803780193002B07D12200CF
:1062D00041321178744B06701970019B1370FEF7F0
:1062E0003EF8012302203B70FFF7F4FC00226F4BC5
:1062F0001A706F4B1A702C23FF33E35C5A1F5F2A0E
:1063000000D914236B4A1370C8226B4B92001A8079
:1063100001226A4B1A700023694A1370694A13708C
:10632000694A1370694A1370694A137010F030FF9C
:10633000684B694A1888032343431188994200D067
:106340001380012010F0BCFE0122644B2A701A70E9
:1063500000217F32624814F04DFA8022002161480A
:1063600014F048FA802200215F4814F043FA00211B
:1063700080225E4814F03EFA00225D4B1A7010F045
:1063800047F9022005F0DCFA56E6002E02D1FFF7AD
:106390006DFC51E60121574B1B682B331A784A409C
:1063A0001A70554B198047E6002E02D1FEF772FC99
:1063B00042E6260000224E361100308805F054FED9
:1063C000002800D138E632882B1D5B006D00E252B8
:1063D00062530122494B1A70494B33E6494B1B78F3
:1063E0005BB2002B0BD00B2806D10A3805F00EFE4D
:1063F00007F02EFF3E4BB4E601204042F6E7424A4A
:10640000E37D11780A2900D113700B2807D1082BDE
:1064100001D80133E3750122394B1A70EAE7002BEA
:10642000F9D0013BF6E7334B384D196800230C00D7
:106430000834E27FEE5C964203D00133182BF9D189
:106440000023122803D1172BD4D0012202E0FF220F
:10645000002BCFD0D218D2B2AB5C2D4AE377CB8BD6
:106460009B18062BD7D80122234B1A80D3E7FEF7BF
:10647000DBF9002E00D1DFE50122264BE3E5C04623
:1064800032040020310400203004002043080020A2
:106490004E0000202F0400204C0800202E04002075
:1064A000F01E00202D0400202C0400202B040020CE
:1064B000DA030020010000200C0000200000002072
:1064C000370600203606002038060020D9030020B9
:1064D000D80300201A000020100000203A060020F7
:1064E000651C0020E51C0020651D0020E51D002026
:1064F000D9080020541F00204E080020B4070020B7
:1065000023080020181F0020020000208AC0010874
:1065100000FCFFFF511F002010B51422002102488B
:1065200014F068F910BDC0463A1F002070B5414B09
:1065300004001B78A0B0002B40D005F00DFC051E18
:106540000BD103200EF0C2FF3B4B1D703B4B1B7861
:106550005EB2002B03D00FF091FC20B070BD384A22
:10656000384B394D002C25D001216846117080220E
:10657000FE311E7014F03EF9330080226946334824
:10658000FEF752FD6022FF21314814F033F9AB7D54
:10659000304A9B075B0F9D5A2F4B07201D800FF041
:1065A0004BFB2E4B000918802200012128000FF020
:1065B0002DFCD2E714701C70AD8AEDE705F0B0F940
:1065C000041ECAD11C4B1870254B1870FFF7A4FF8E
:1065D00005F0DAFE200000240EF078FF214B1C5756
:1065E000002C16D08022204BD2001B88934202D36D
:1065F000FDF716F9B1E7012005F008FD07F028FEC8
:1066000007F0FEFA2000FFF789FA0122174B1A70F3
:10661000A3E7174B1B685A1E9341164A01331370A8
:1066200007F0EEFA01210800FFF7ECF9124B1C709D
:10663000EBE7C046521F00204C080020171F002027
:10664000DE1E0020DA1E0020801F002028A000008F
:106650007A1E0020D8C40108741E0020761E002077
:106660004F1F0020181F002048080020651F002031
:1066700044080020B81F00204308002010B5012066
:10668000FFF754FF10BD00000F2210B50021044891
:1066900014F0B0F80022034B1A70034B1A7010BDAF
:1066A0003308002042080020161F0020114B70B54F
:1066B0001B78002B03D1104B1B78002B07D0FFF762
:1066C000E3FF00220D4B1A700D4B01321A700D4B77
:1066D0000D4C1B780D4D002B03D123782A781343E2
:1066E00007D0FEF7A1F8002301222B702370044B82
:1066F0001A7070BD161F00204208002053000020B1
:10670000601F0020D9080020581F0020531F0020C0
:1067100010B51D4B1B78002B03D11C4B1B78012B94
:1067200007D1002921D100281FD00222184B1A704E
:106730001BE0002915D1002818D1164A1278002A2A
:1067400001D1002B01D0032B0FD10123124A117864
:106750004B40137002D01022104B1A70104B0122C4
:10676000E5E7002801D0FCF7DBFD10BD084A032B4C
:1067700002D001231370F8E70A4B1B78002BF8D0E6
:1067800002231370084BEAE7531F0020371F002035
:10679000511F0020521F0020D9080020581F002040
:1067A000651F0020171F0020F11E00200022404B13
:1067B00070B51A70904203D03E4B1B78934212D0B2
:1067C0003D4B1B78012B0DD10024FCF783FF3B4B85
:1067D00020001C7005F0A2FF394B1B78012B01D063
:1067E000384B1C7070BD05F09BF8354D002807D064
:1067F0000CF0B4F8344B1B78002B2ED0334B2AE02E
:10680000334B1B785BB2002B02D0FDF709F8F1E7A0
:10681000304B1B78002B05D00FF030FB0322294BA7
:106820001A70E7E72B78032B14D0234A1278012A39
:1068300003D1294A1278002AD4D0012B02D0002299
:10684000204B1A702549264B09781A78002915D152
:10685000002A1AD1234B01221A700022224B1A70EF
:106860002B78012B04D0174B1978032900D01A700C
:1068700001221E4B1A701E4B1A70B3E7002A04D176
:106880001C4A1278002AE5D01A701A780E2A01D90B
:106890000E221A7000261B78164A174C17491370DF
:1068A00020000E22CE5414F0DDF8A673D2E7C046C5
:1068B000531F0020FD1E00205E1F0020E21E00204E
:1068C000371F002053000020141F0020B8070020AD
:1068D000181F0020171F0020C1070020161F0020CE
:1068E000420800205008002018050020651F0020E5
:1068F000601F002035040020C42000203308002041
:10690000F0B5B84F04003B780D00160085B0132B8E
:1069100007D0A34203D1002D01D113233B7005B052
:10692000F0BDB14A1278002A0FD0002901D11028F9
:106930000AD1FCF7E5FBFEF75DF9102C05D000222B
:10694000AA4B3C701A70EAE71C00A94F3B78132B46
:10695000DFD1002D00D132E1A64B1B78002B00D1F6
:106960002DE1FCF7CDFBFEF745F9102CE7D1A24B4A
:1069700001931B78052B02D100200AF05BFEFA225E
:106980009E4B92001A809E4B00939E4B19780029D3
:1069900003D01E224A439C4B1A70002D00D06BE19D
:1069A0009A4F3B78002B02D006F0B2FE3D70984F14
:1069B0003B78002B03D006F0E5FE00233B70954F9B
:1069C0003B78002B03D006F075FE00233B70924FFE
:1069D0003B78002B13D0914B1A68009BD08B597BCE
:1069E000012307F09FF800233B7004F099FF002873
:1069F00005D18B4B1A78002A01D101321A7000227E
:106A0000884B1B78934207D0874B1B78934203D166
:106A1000864B1A7853425A41794B0093597E131E84
:106A200001D1002904D0019B1B78013B581E8341F2
:106A30007F480778B80700D557E1002B00D18DE1DA
:106A4000102C00D053E17B4B1F78002F04D037006F
:106A5000002D01D101271D70774B02931B78002B6D
:106A600005D0102C01D00D2C01D1FDF7DDFE002F3B
:106A700010D1019B1B78012B00D014E26F4B1F78C3
:106A80000193002F00D0D0E1102C00D07BE1280032
:106A9000FFF78CFE554C2078002803D004F050FFFF
:106AA00000232370664C674A23780092002B09D09C
:106AB0002822654B1A800BF085F80123009A137089
:106AC00000232370614C2378002B09D0002E00D0C6
:106AD00062E306F057FE0023012223705C4B1A701C
:106AE0005C4B1A78002A06D000221A70964200D019
:106AF00056E306F0DFFD584B1A78002A06D0002234
:106B00001A70964200D04FE306F002FE534B444FFA
:106B100002931B88524C0193002B23D0002E01D1ED
:106B2000002D0AD009F068F8404B1B78002801D0EE
:106B3000012B02D0022B00D03AE3384B30491A68BF
:106B40006B46497B1B79D08B06F0ECFF04F0E8FE26
:106B50003B78002803D1002B01D101333B70002387
:106B6000029A13803D783F4E002D00D12EE33E4B1C
:106B700001931B78002B00D124E32900002006F0AC
:106B8000C7FB2900012006F0C3FB2378FF2B01D1AE
:106B900000232370012333700023019A3B7013708C
:106BA00005F0F2FB01200AF0A3FE002333702F4B07
:106BB0001B78002B00D10DE3FFF74EF90AE30D2CF3
:106BC00000D0D4E62A4B1F78002F00D0CFE6294B07
:106BD000DB7F002B00D1CAE6FEF70CF8034B1F70D9
:106BE0009DE6C046270000202E1F0020511F0020D8
:106BF00026000020E00700205E1F00204C0000203F
:106C0000801F0020BE1F0020641F0020BD07002041
:106C1000BC070020BB070020BA070020541F00203B
:106C200023080020061F0020021F0020371F00201D
:106C3000B9070020B8070020D9080020510800201B
:106C4000B7070020B6070020381F00202F080020BB
:106C5000651F0020B5070020B40700204E08002063
:106C60005300002032080020B30700204C08002009
:106C7000E7180020881F002008F0BEFFBC4F102C32
:106C800003D1BC4B1B78DB0727D53B78012B04D104
:106C9000132804D01538012801D9FDF7ABFF0D2CBE
:106CA0001BD1002E19D0B44B1B78002B07D0FFF757
:106CB00033FC0022B14B1A70B14B01321A70FFF74E
:106CC000F5FC0122AF4B1A70AF4B1B78002B01D0A3
:106CD000FFF7C2F80022AD4B1A603B78012B00D0C1
:106CE0008DE62822AA4B1A8089E6002B36D0012097
:106CF0000D2C0AD1002D08D0002A06D0A54B187003
:106D00009F4B187004F01CFE09E6074201D00029D1
:106D100005D12300113B012B33D90A2C0FD00F2CA6
:106D200012D1002D00D1FAE5002E1BD1022004F073
:106D300007FE0422984B1A700122914B02E6002EA6
:106D40001FD1002DF2D0EAE5002D00D15CE2002E2B
:106D500000D0E4E50A2C00D1E1E5E7E7092C01D9F0
:106D60000F2C0BD18D4B1B78002B0AD0002D00D19E
:106D7000D5E5002E00D0D2E50220C3E7102C00D1CB
:106D800061E6874B60E6FE230193112C06D02000BC
:106D9000FCF716FB0190FF2800D17BE6002D0CD1FB
:106DA000A0238022DB0552009A627E4B28001D70D2
:106DB000FDF752FBFDF78EFA6CE6002E00D069E677
:106DC000009B7E331B78002B07D0A0238022DB059D
:106DD00052009A61734BFF3A1A70FDF77BFA019BE0
:106DE000FE2B06D1009B70497E331878FDF7ECFF2F
:106DF00050E6009B7E331C78FDF7B8FAFDF7C4FA25
:106E0000002C00D003273800FDF748FA67497020AE
:106E1000FDF72CF8FDF738FB6548FDF759FE0198A2
:106E2000FDF778F9FDF7B8FA34E6B54200D131E65E
:106E3000032F02D0002D00D12CE6A0238022DB05F9
:106E400052009A620022574B1A7002239F43012F6F
:106E500001D10BF057FA00275022019B55481F70B3
:106E6000554B1A80FDF734FE01200AF041FD404BDE
:106E70001B78012B01D0514B1F70009B46331878B3
:106E800000280BD10AF0D6FB01234D4A102C03D069
:106E9000434A002E00D0FDE51370FBE50A22424371
:106EA000484B1A70F0E7484B364A03931B7801921F
:106EB000002B1BD12E4B1F78FF2F09D02300113B35
:106EC000012B00D957E1029B1B78002B00D052E127
:106ED00004F026FD002800D055E1042F00D152E136
:106EE000320029002000FEF74FFED3E5002E00D02F
:106EF000D0E5002D00D1CDE5102C34D00127019B29
:106F00001F700C2C06D80A2C27D867D00223019AB0
:106F1000137028E00D2CF9D1FDF724FF2B4B1B78C3
:106F2000012B0FD12A4B1A882A4B9A420AD0009B78
:106F30000099587B031D5B00CA524300CA520221CC
:106F400006F0E6F905F020FA01200AF0D1FC002055
:106F50000EF0BCFA0023039A9EE71C4A13787B408C
:106F600013701D4B1E700122054B1A7092E5C0462E
:106F7000371F0020CC0700203A1F00204F1F0020A1
:106F8000601F0020511F00204C08002044080020F2
:106F9000381F0020021F0020611F0020321F002028
:106FA000F11E0020781E0020D6060000C3C300009A
:106FB00050C3000088130000E61E0020530000208C
:106FC000B8070020C10700202B1F0020B2070020B7
:106FD00024000020FFFF0000B10700208D4C8E4AE6
:106FE0008E49200005F096F923002D331F702300F1
:106FF000200029331F7005F0A5F8894B38001C606C
:10700000884B1C60884B1C600AF072FCFDF7EEF99F
:10701000FDF7A8FE854B1B78002B00D09FE0844F26
:1070200046220021380013F0E5FB824C824B834A54
:1070300083492380537BA1800221A17146315943AA
:1070400053181800883000910188408821816081A0
:107050001800A03001884088A181E08118008D309F
:107060000078B62120741800953000788C46607442
:1070700018008C3000789C44A0741800943000787C
:107080006146E0741800BC30007820751800A83004
:10709000007860751800B0300078A0751800BB301B
:1070A0000078E0751800B130007820761800B5300F
:1070B0000078097860761800B3300078A076180060
:1070C000BA300078E0761800AF30007860771800AA
:1070D000B4300078A0771800B8300088E077601CE2
:1070E000C17718008021BD30A63300781B88F8775F
:1070F000C90054488B422BD2190006F0E3F8422114
:1071000038000EF03DFC0627A31DD8874E4B2020EB
:107110000834E3870FF066FA4C4C277007F0BCF98F
:10712000FDF7DCFB05F05AF910F022FE882136202D
:10713000FCF79CFE00210120FDF72AF805F024F958
:1071400001200AF0D5FB01232370414B1F700AE791
:107150000099BE318918102213F07BFCCFE7022280
:107160003A4B1A703B4B033A1A8000223A4B1A7082
:10717000FDF70AFEF7E6394BBF0032002900200078
:10718000FB58984786E4002E00D083E4002D00D100
:1071900080E40223019A7FE60122314B1A709AE4BF
:1071A0000122304B1A70A6E401222F4B1A70ADE475
:1071B00001222E4B1A702378FF2B00D0CFE400233E
:1071C0002370CCE41D4B2900587BDCE43378002B82
:1071D00000D0E5E4009B1B78002B07D00023009A29
:1071E00013702822224B1A8008F014FD214D2B78B1
:1071F000002B03D00BF082FA00232B7020780EF0C6
:1072000065F9FF23237097E50A2C01D0FFF787FB70
:107210008CE5C0462007002090FE96020504000081
:10722000701E0020541F00206C1E0020B20700209A
:107230006A07002068070020CDABFFFF801F0020F9
:10724000A5BEFFFF8A070020BADCFFFFB1070020C0
:10725000511F002024000020B0070020C0C20108F8
:10726000BC070020BB070020BD070020BA07002094
:10727000381F00205008002000221020110010B5F7
:10728000FFF73EFB0022064B1A70064B1B78132BB0
:1072900002D0054B01321A70FDF7F4FB10BDC04659
:1072A000141F002054000020F11E0020F0B5CA4B2E
:1072B0009BB01B780093052B33D1C84B1B78002B58
:1072C0002FD0C74B02931B780193002B00D10AE209
:1072D000C44C25782800E130FF3000030135FDF76C
:1072E000F9FDEBB22370072B04D90023029A137027
:1072F00010F0F4FABC4B1B78052B02D10122BB4BDA
:107300001A70BB49BB4A0B78002B00D0C8E2009929
:107310001378012900D0CAE21378002B00D0CDE207
:1073200001E304F0FDFA0028CBD10C20FCF764FB4C
:1073300001231842C5D000210220FCF797FD02204E
:10734000FCF75AFB082307043F0E04001F4226D017
:107350000B20FCF751FB0005000FFCF731F806008D
:10736000FF281CD0009B012B19D0A34B1B78002BAE
:1073700015D0A24D2800FBF7ADFA0200132804D166
:1073800028009F4913F03EFB12220023AE54AD1893
:107390000C226B709B4B1A70944B0B3A1A707B0744
:1073A00002D50122984B1A7001231F4209D00122F5
:1073B000964B0C201A70FCF71FFB954B800BC0B24C
:1073C0001870BB0702D50022904B1A70E5B2630615
:1073D00002D501228F4B1A70240602D500228D4B54
:1073E0001A70EB062AD501228B4B1A708B4B09328F
:1073F0001A808B4B9A7F002A20D0009A052A08D148
:10740000764A1178002904D11420864A1080864AD1
:1074100011700533DB7F002B10D0844A844B117828
:10742000002902D11988132908D8142119800023B2
:107430001370804A137001227F4B1A70AB0604D57B
:107440000022754B1A70754B1A806B0709D5012203
:107450007A4B10001A7006F0D9FEE122784B5201E7
:107460001A8008231D4204D00020744B187006F0C7
:10747000CDFEFB063DD55C4B1C78042C39D1714BFD
:107480001B78012B35D1704B1B78002B31D16F4EFF
:107490005F203378013CDAB20133DBB23370019202
:1074A000FCF7AAFA019B6A4D5B00E852002CEED172
:1074B0003378232B1DD901224C4B0B2034701A70CA
:1074C000FCF79AFA0600FDF75FFCF6060AD42A8854
:1074D000604B9A4206D12B000833DA8F5E4B9A42FA
:1074E00000D1C7E0FDF73EFCFDF74EFC5B4810F015
:1074F00041F830231F4200D117E7594B1B78002B6E
:1075000000D112E7574B1B78012B00D00DE7564BEB
:1075100001931B78022B02D0052B00D005E7042530
:107520004A4CBF0602D523782035ED1A0026AE421C
:1075300000D0C1E0237801232C4E33702378232B15
:1075400000D8F2E6237800230B202370FCF754FACE
:107550000400FDF719FC250010231D401C4200D03B
:10756000B9E03B4C3B4B22889A4200D0B3E0230069
:107570000833DA8F384B9A4200D0ACE020200FF06D
:1075800031F8A31D42213948DF8F0EF0F9F9874207
:1075900000D0A0E0E388A2881B041343344A1B02F6
:1075A0001B0A934200D096E000222800110004F04C
:1075B0005BFD071E01D101F02FFA80230135ADB22A
:1075C000DB009D42F0D10423019A1370033B33701A
:1075D000FDF7C8FBA9E6C0465E1F0020E91E00209B
:1075E000DD1A0020DB1A0020371F0020601F00205A
:1075F0001E0700200B1F0020140700203A1F002048
:107600003B1F00204F1F0020D1070020D80700207B
:10761000D7070020DA070020E31E0020E41E002028
:10762000801F00202C1F0020EA1E00204E0000209A
:10763000DC07002043080020651F0020DE07002033
:107640005A1F0020681E002015070020B0070020E8
:1076500068070020CDAB0000BADC00001207002054
:107660002B1F0020B2070020B10700206A0700206E
:10767000A5BE020022200EF0B5FF4221B4480EF054
:107680007FF9AB1DDB8F834200D02FE76D880EF0B2
:1076900079FE8188A3B2994200D827E70623634385
:1076A0000268D618D35AAB4204D87388AB4201D9CA
:1076B00001F050FA0134EDE75F20FCF79DF92378E3
:1076C000232B06D823785A1CD2B22270A14A5B0021
:1076D000985201362BE70523019A1370043B33704F
:1076E000FDF788FA21E69C4B1B78002B00D108E6B9
:1076F00008272DE0994C37E0280010F023F80028E7
:1077000022D00821964A2B7B12780B4268D0002A9F
:107710001AD1944B1B88DA060DD18022D2009342F5
:1077200009D25809904A41008C52012282408F4967
:10773000086802430A608E490A88002A6BD0013A21
:107740000A80884A01331380013FFFB2002F1FD007
:107750008022884ED2003388934219D2864A1488F8
:10776000002CC7D0013CA4B201333380F0231B02AC
:1077700008ADE0181480400120222900FCF78EFF9C
:10778000280010F005F80028B6D08023DB003380F5
:107790008022784BD20019886F4B914202D2019A15
:1077A000002A62D000221A70744B01321A70744B96
:1077B0001B78002B4BD0734B1878002800D099E52C
:1077C0006F4B1A78002A00D194E56F4B1B88062A6C
:1077D00055D96E4A1188994200D18BE5138089E50D
:1077E000012A13D19A43002AAED0694B6A681B68FC
:1077F000013B9B1A8022920093428AD30022564B6F
:1078000001901A705D4B01321A70C1E7022AECD167
:10781000013A1A40E7E75A4908788C4606280ED8FC
:107820005C4A0101891808AA70CA70C10D0011884C
:10783000013029809278AA706246107081E7012198
:10784000504B1970444B1A704C4B1970A0E7484BC1
:107850001B88002BAFD04C4A10888342ABD2013832
:10786000C01A80B210F028FC44E51B78002B00D031
:1078700040E5424B1B78002B00D13BE59BE70721FD
:10788000891A89B2994207D2073BD21890B23F4B6E
:10789000188010F099FB2DE5002B00D12AE5F6E7C2
:1078A000013BDBB20B70002B00D035E52FE53A49E8
:1078B0000978002900D02FE5002B21D0374E384B16
:1078C00031781A78022900D0E3E1002A00D1D8E10A
:1078D000344D2968002905D033480068091A002969
:1078E00000DD34E1314C20780138052800D9C6E1AB
:1078F000FBF716F8A200A4008F01AB01AB01AE01AB
:107900002B4B1B785BB2002B0DD104F009F800283B
:1079100009D1284B1B78002B05D1274C2388002B3D
:1079200054D0013B2380254B1B78002B00D10EE166
:10793000234B1A880123110019401A4200D006E196
:10794000204B1B78012B00D1AEE31F4B1970FEE0DA
:107950006A070020680700200E070020FF030000D0
:10796000E01A0020080700204C06002048060020EE
:10797000060700200A0700200C0700208C060020C4
:1079800004070020900600208E060020E21A002046
:10799000CC1A002094060020E00700203A060020C0
:1079A00039060020100600200C06002008060020E2
:1079B000181F0020171F00201C070020160700209A
:1079C000001F00205E1F0020AA050020CA4BCB48E4
:1079D000197810F00BF8029B197810F007F8C84BD3
:1079E000197810F003F8C74B19680FF0FFFFC64B6A
:1079F00019780FF0FBFFC54B19680FF0F7FFC44B68
:107A000019880FF0F3FFC34B1988013149080FF0B3
:107A1000EDFFC14B19780FF0E9FFC04B19780FF05B
:107A2000E5FFBF4E05003368834200D17BE710F0CD
:107A3000E5F9C823356075E702232370B94B1B684D
:107A4000002B21D10020B84BB84E1B78059602932D
:107A5000B74BB84E1B7803960493B74B1B78019332
:107A6000B64B19780300029FCEB2BE422ED3002837
:107A700004D00021B24A1170AA4A1160002B00D133
:107A8000AAE0AE4B1E70A7E0AD4909785B5C002B05
:107A9000D8D0AB4BA34A1B781268D35C2E2B00D0F6
:107AA000ABE0A84B01201988FDF78EF9A64B1C68A6
:107AB000A64B18880A21FAF73DFF80B2001928600A
:107AC0000322A34B1A700EF0A3FDDCE0059B5B5C68
:107AD0001F00613F192F13D8203BDBB2002000901C
:107AE000039F0098BC46C0003F5C84449F425DD128
:107AF00063465B68002B5FD1100013000131B2E7D1
:107B0000202BEBD1049B002BF7D0019B002BF4D151
:107B1000029F4B1CBB42F0DA002804D0884B019A2C
:107B20001A70804B1A600122834B0A211A700523B8
:107B30002370854B01361C68864B1888864B1B8842
:107B4000C01AFAF781FF7D4B001928601E70834A26
:107B5000834B1478009225006A1E954101931B788F
:107B6000EDB2002B02D0002201990A707D4A1278F2
:107B7000002A00D176E3002B04D1002C01D0009A1A
:107B800013700025784B1B78032B00D041E3774A14
:107B900013780133DBB2072B00D843E300201070C9
:107BA000FCF7B0FE002D00D172E362E300980130D3
:107BB0000090362894D19FE7187800289CD00022A6
:107BC0005F4901360A7057490B6001215B4B1E70FB
:107BD000574B1970584B1A70524B1868002806D032
:107BE000FAF778FE564B1B78834200D251E7062302
:107BF0002370554B1C68584B1CE02D2B00D05FE7C1
:107C0000504B01201988FDF7DFF84F4B1C68584B8B
:107C10004FE7FCF7B9FB4A4A13780133DBB2137024
:107C2000404A1268D25C484B002A0BD002222270D4
:107C30001C68504B18880A21FAF77CFE80B20019A4
:107C4000286084E704222270D4E7022323707EE7B1
:107C50000027277001241F702F603470FCF7B0FBE1
:107C60000220FEF737F8444B38001F70434B1F705B
:107C700004F054FD04F088FB394B1C7023E700230B
:107C8000E4E70EF0E7FD3E4B1B78002B00D05EE7EB
:107C900049E6002A2AD03B4B1A78002A04D1012257
:107CA00002201A70FEF716F8FCF70CFC364A374B28
:107CB00012683749128E9B560A78002A72D0354BCB
:107CC0001A78501C1870312A02D900220A701A70D2
:107CD000314A1378002BD6D0FF2B00D0B4E100231B
:107CE00013702E4A13702E4A1370ECE60EF0B2FD9C
:107CF0003378022BC7D0CEE7121F0020C59D1C8110
:107D0000D81A0020CC1A002044060020400600208B
:107D10003C060020101F0020DF1A0020DE1A002081
:107D20001807002004060020AB050020AF05002046
:107D3000AE050020E0C00108AD050020AC05002024
:107D4000000600200C0000200C0600201A00002075
:107D5000080600201400002012000020651F0020EB
:107D6000601F0020E0070020E1070020DF0700205F
:107D7000100000200E000020C2070020C1070020D4
:107D80000B1F00204C080020701E00201C0000204B
:107D90003506002034060020380600203706002073
:107DA000360600204408A03BE418AB4AAB4B1178E0
:107DB000009300201B5EAA48A5B2019024B20029BE
:107DC00006D10078002803D19C4209DA009B1C8070
:107DD000009B00201B5E603308DB61235B4203E0F5
:107DE000180001336130F3DA00980380009B002013
:107DF0001B5E1800723016DB0A331BB299489C4296
:107E000014DB994B1C800378FF2B01D001330370E6
:107E10000026964B1E70B14215D10378B34212D0A2
:107E2000012313700FE069235B42E7E78F4E33783D
:107E3000FF2B01D00133337000230370994202D02D
:107E400031789942EDD11778894E8A4A3378029277
:107E5000002F41D0002B0DD1874A1378FF2B0FD173
:107E6000012300223370844B1A700EF0D1FB33785B
:107E7000002B0AD0029B1888042844D8012047E030
:107E80000133DBB21370032BEAD87C4D2C88002C15
:107E900002D120000FF06AF8012301341C402C802D
:107EA000029B01201B88042B04D90A21581DFAF7D4
:107EB000CBFD80B207244443019BA4B21B78002F62
:107EC0005FD06F4D002B49D02B886E4A934200D96A
:107ED000FEE601332B80FBE66B4A002B0FD01378B4
:107EE000FF2B06D10023644A33701370664A137067
:107EF000BBE70133DBB21370072BBBD9F2E75E4B54
:107F000017701F70C1E70A210530FAF79DFD80B296
:107F10000121002F05D1401880B24918032800D94B
:107F20004108564A13888B4215D3002313807834B6
:107F300006DB78352B1CEDB2402D00D94023DBB297
:107F40004020002F04D1181C142B00D91420C0B2DB
:107F50000FF00CF8A4E701331380A1E74B4E4C4F10
:107F60003378022B05D13B88A34202D349480EF057
:107F7000D1FF0123019A3370137000222A803A80C6
:107F8000A6E6424D002B36D03D4C2388002B28D04E
:107F9000012B23D0404E317809290AD84000834272
:107FA00080414A1C3D4B4042D2B22D305854327071
:107FB0009F542D4B009A1B88128839499B1A1A1C12
:107FC0001BB2282B00DD2822130400D500220B88C9
:107FD0009B18344A0B8013780133137020200EF065
:107FE000C5FF0023019A238013700122284B1A80B9
:107FF00002232B706CE62B78022B00D068E6244E0F
:10800000204A3388934201D801333380224F3B7892
:10801000002B09D0032545433388ADB2AB4203D3CF
:1080200000200EF0BDFF35803388A34200D24FE61A
:108030003B78002B04D001200EF0B2FF348047E6DD
:1080400014480EF067FFF9E70133DBB213704F2BD2
:1080500000D818E643E6C04633060020180000208A
:10806000320600202A0600201600002029060020E3
:10807000280600201A0000202706002024060020E1
:1080800030060020FDFF0000260600202E060020FE
:108090002C06002018B901082B0600201806002025
:1080A0001606002014060020FCF774FB002808D1F7
:1080B000C34B9B7F002B04D1C24B1B78002B00D1FC
:1080C00045E5C149C14F0B78002B0ED13A00C820BD
:1080D0002B33013BDBB210800232002BF9D1BC4ABA
:1080E0001370BC4B188001230B70BB4AB84D13783A
:1080F0002C786600062B00D886E06420FBF77CFC19
:10810000B853F35B002B01D1C833F3532B21601C10
:10811000FAF796FCB14B0E001B782970002B04D0A7
:10812000AF4B1B78002B00D111E5AE4AAE4B107857
:108130001B78184300D00AE5AC4B1870AC4B187094
:1081400006F064F803229E4B00929B8C002B01D119
:1081500005330093009B8022DD01A64B0021ED1822
:10816000280012F047FB3888012203005100795A99
:10817000041C884200D90C1CA0B20C1C994200D2ED
:108180001C1C0132A3B22B2AF0D1924A1488A042BF
:108190003DD2611E241AE4100C1BA4B214800022EC
:1081A00001929C4202D21B1B9BB2019333002B33E2
:1081B0000293019A4023312A1BD92B213000FAF770
:1081C00029FD824F4900CB5B00209C4201D21B1B42
:1081D00098B2072701997843FAF7ACFBC2B2402363
:1081E000002A06D0BF331840381A803B83407F22D4
:1081F00013402B706B70029B01360335B342D8D10C
:108200000098FCF770FBA2E40133137079E70234A5
:10821000C3E7022B00D0C5E4774A13780133DBB201
:108220000F2B01D81370BDE40023744C1370267813
:1082300020007F227F34724912F0E4FB26706D4CDF
:10824000704E2000611C7F22277812F0DBFB230098
:1082500080347F331F70A642F3D1FCF74DFBFCF74F
:108260003DFB9FE4002B00D19CE40DF021F9002C94
:1082700008D00023009A1370634B1B78002B07D1A2
:1082800009F034F8604B1878002801D10FF08AF813
:108290005E4C2378002B04D05D480FF03BFB00239D
:1082A00023705C4D2B78002B04D05B4B1B78002B8C
:1082B00000D084E3594B1B78022B49D1584B1B88C3
:1082C0001B0705D18023574A9B0151694B405361DD
:1082D000554A1388002B01D0013B1380534A138861
